{
  "_format": "hh3-artifact-1",
  "contractName": "QuyTuThien",
  "sourceName": "contracts/QuyTuThien.sol",
  "abi": [
    {
      "inputs": [],
      "stateMutability": "nonpayable",
      "type": "constructor"
    },
    {
      "anonymous": false,
      "inputs": [
        {
          "indexed": false,
          "internalType": "uint256",
          "name": "idChienDich",
          "type": "uint256"
        },
        {
          "indexed": false,
          "internalType": "address",
          "name": "nguoiNhan",
          "type": "address"
        },
        {
          "indexed": false,
          "internalType": "uint256",
          "name": "soTien",
          "type": "uint256"
        },
        {
          "indexed": false,
          "internalType": "string",
          "name": "mucDichChi",
          "type": "string"
        }
      ],
      "name": "GiaiNganThanhCong",
      "type": "event"
    },
    {
      "anonymous": false,
      "inputs": [
        {
          "indexed": false,
          "internalType": "uint256",
          "name": "idChienDich",
          "type": "uint256"
        },
        {
          "indexed": false,
          "internalType": "address",
          "name": "nguoiGui",
          "type": "address"
        },
        {
          "indexed": false,
          "internalType": "uint256",
          "name": "soTien",
          "type": "uint256"
        }
      ],
      "name": "NhanTienQuyenGop",
      "type": "event"
    },
    {
      "anonymous": false,
      "inputs": [
        {
          "indexed": false,
          "internalType": "uint256",
          "name": "idChienDich",
          "type": "uint256"
        },
        {
          "indexed": false,
          "internalType": "uint256",
          "name": "idTrenDatabase",
          "type": "uint256"
        },
        {
          "indexed": false,
          "internalType": "uint256",
          "name": "thoiGianKetThuc",
          "type": "uint256"
        }
      ],
      "name": "TaoChienDichMoi",
      "type": "event"
    },
    {
      "inputs": [
        {
          "internalType": "uint256",
          "name": "",
          "type": "uint256"
        }
      ],
      "name": "danhSachChienDich",
      "outputs": [
        {
          "internalType": "uint256",
          "name": "idTrenDatabase",
          "type": "uint256"
        },
        {
          "internalType": "address payable",
          "name": "nguoiNhanTien",
          "type": "address"
        },
        {
          "internalType": "uint256",
          "name": "mucTieuTien",
          "type": "uint256"
        },
        {
          "internalType": "uint256",
          "name": "tongTienDangGiu",
          "type": "uint256"
        },
        {
          "internalType": "uint256",
          "name": "soTienDaRut",
          "type": "uint256"
        },
        {
          "internalType": "uint256",
          "name": "thoiGianKetThuc",
          "type": "uint256"
        },
        {
          "internalType": "bool",
          "name": "trangThaiDong",
          "type": "bool"
        }
      ],
      "stateMutability": "view",
      "type": "function"
    },
    {
      "inputs": [
        {
          "internalType": "uint256",
          "name": "_idChienDich",
          "type": "uint256"
        }
      ],
      "name": "dongChienDich",
      "outputs": [],
      "stateMutability": "nonpayable",
      "type": "function"
    },
    {
      "inputs": [],
      "name": "quanTriVien",
      "outputs": [
        {
          "internalType": "address",
          "name": "",
          "type": "address"
        }
      ],
      "stateMutability": "view",
      "type": "function"
    },
    {
      "inputs": [
        {
          "internalType": "uint256",
          "name": "_idChienDich",
          "type": "uint256"
        }
      ],
      "name": "quyenGop",
      "outputs": [],
      "stateMutability": "payable",
      "type": "function"
    },
    {
      "inputs": [
        {
          "internalType": "uint256",
          "name": "_idChienDich",
          "type": "uint256"
        },
        {
          "internalType": "uint256",
          "name": "_soTienCanRut",
          "type": "uint256"
        },
        {
          "internalType": "string",
          "name": "_mucDichChi",
          "type": "string"
        }
      ],
      "name": "rutTienGiaiNgan",
      "outputs": [],
      "stateMutability": "nonpayable",
      "type": "function"
    },
    {
      "inputs": [
        {
          "internalType": "uint256",
          "name": "_idTrenDatabase",
          "type": "uint256"
        },
        {
          "internalType": "address payable",
          "name": "_nguoiNhanTien",
          "type": "address"
        },
        {
          "internalType": "uint256",
          "name": "_mucTieuTien",
          "type": "uint256"
        },
        {
          "internalType": "uint256",
          "name": "_thoiGianKetThuc",
          "type": "uint256"
        }
      ],
      "name": "taoChienDich",
      "outputs": [],
      "stateMutability": "nonpayable",
      "type": "function"
    },
    {
      "inputs": [],
      "name": "tongSoChienDich",
      "outputs": [
        {
          "internalType": "uint256",
          "name": "",
          "type": "uint256"
        }
      ],
      "stateMutability": "view",
      "type": "function"
    }
  ],
  "bytecode": "0x6080604052348015600e575f5ffd5b50600280546001600160a01b031916331790556109048061002e5f395ff3fe60806040526004361061006e575f3560e01c8063b3eeb5bb1161004c578063b3eeb5bb146100e2578063cbfec89114610101578063e1b486b214610120578063fbb98bf8146101c1575f5ffd5b8063677d66ac146100725780636f66d9e0146100875780637536ad94146100a6575b5f5ffd5b6100856100803660046106ae565b6101e3565b005b348015610092575f5ffd5b506100856100a13660046106d9565b610347565b3480156100b1575f5ffd5b506002546100c5906001600160a01b031681565b6040516001600160a01b0390911681526020015b60405180910390f35b3480156100ed575f5ffd5b506100856100fc36600461079e565b610541565b34801561010c575f5ffd5b5061008561011b3660046106ae565b610664565b34801561012b575f5ffd5b5061018261013a3660046106ae565b600160208190525f918252604090912080549181015460028201546003830154600484015460058501546006909501546001600160a01b039094169492939192909160ff1687565b604080519788526001600160a01b039096166020880152948601939093526060850191909152608084015260a0830152151560c082015260e0016100d9565b3480156101cc575f5ffd5b506101d55f5481565b6040519081526020016100d9565b5f818152600160205260409020600681015460ff161561024a5760405162461bcd60e51b815260206004820152601760248201527f4c6f693a20436869656e206469636820646120646f6e6700000000000000000060448201526064015b60405180910390fd5b806005015442111561029e5760405162461bcd60e51b815260206004820152601960248201527f4c6f693a204461206865742068616e20717579656e20676f70000000000000006044820152606401610241565b5f34116102ed5760405162461bcd60e51b815260206004820152601b60248201527f4c6f693a20536f207469656e2070686169206c6f6e20686f6e203000000000006044820152606401610241565b34816003015f82825461030091906107f7565b909155505060408051838152336020820152348183015290517f8ceef0f3fa6aae899e4f7a25ee836a441dd6a9b9f6da648085ef15e927034ede9181900360600190a15050565b5f838152600160208190526040909120908101546001600160a01b031633148061037b57506002546001600160a01b031633145b6103c75760405162461bcd60e51b815260206004820152601c60248201527f4c6f693a204b686f6e6720636f20717579656e20727574207469656e000000006044820152606401610241565b828160030154101561041b5760405162461bcd60e51b815260206004820152601c60248201527f4c6f693a204b686f6e67206475207469656e2074726f6e6720717579000000006044820152606401610241565b82816003015f82825461042e9190610810565b9250508190555082816004015f82825461044891906107f7565b909155505060018101546040515f916001600160a01b03169085908381818185875af1925050503d805f8114610499576040519150601f19603f3d011682016040523d82523d5f602084013e61049e565b606091505b50509050806104ef5760405162461bcd60e51b815260206004820152601960248201527f4c6f693a2043687579656e207469656e207468617420626169000000000000006044820152606401610241565b60018201546040517f43813d281ab62937fcf3dc6b956c732345645a3a4b061f08e8b3c5f3d7736ea6916105329188916001600160a01b03169088908890610823565b60405180910390a15050505050565b6002546001600160a01b0316331461056b5760405162461bcd60e51b815260040161024190610875565b5f80549080610579836108b6565b90915550506040805160e0810182528581526001600160a01b0385811660208084019182528385018781525f60608087018281526080880183815260a089018b815260c08a018581528554865260018089528c87209b518c559851988b0180546001600160a01b03191699909a169890981790985593516002890155516003880155915160048701559351600586015591516006909401805460ff191694151594909417909355905483519081529182018790529181018390527f63235046c78169db76754de2ef3378ebc8f7d2f779de8533164e900e4fadc957910160405180910390a150505050565b6002546001600160a01b0316331461068e5760405162461bcd60e51b815260040161024190610875565b5f908152600160208190526040909120600601805460ff19169091179055565b5f602082840312156106be575f5ffd5b5035919050565b634e487b7160e01b5f52604160045260245ffd5b5f5f5f606084860312156106eb575f5ffd5b8335925060208401359150604084013567ffffffffffffffff81111561070f575f5ffd5b8401601f8101861361071f575f5ffd5b803567ffffffffffffffff811115610739576107396106c5565b604051601f8201601f19908116603f0116810167ffffffffffffffff81118282101715610768576107686106c5565b60405281815282820160200188101561077f575f5ffd5b816020840160208301375f602083830101528093505050509250925092565b5f5f5f5f608085870312156107b1575f5ffd5b8435935060208501356001600160a01b03811681146107ce575f5ffd5b93969395505050506040820135916060013590565b634e487b7160e01b5f52601160045260245ffd5b8082018082111561080a5761080a6107e3565b92915050565b8181038181111561080a5761080a6107e3565b84815260018060a01b0384166020820152826040820152608060608201525f8251806080840152806020850160a085015e5f60a0828501015260a0601f19601f83011684010191505095945050505050565b60208082526021908201527f4c6f693a204368692041646d696e206d6f692064756f632074687563206869656040820152603760f91b606082015260800190565b5f600182016108c7576108c76107e3565b506001019056fea2646970667358221220784230c6901fa6993e1d0df7270ca5e36db37d13c623bf905fcba5850c0077da64736f6c634300081c0033",
  "linkReferences": {},
  "deployedLinkReferences": {},
  "immutableReferences": {},
  "inputSourceName": "project/contracts/QuyTuThien.sol",
  "buildInfoId": "solc-0_8_28-0ca6090b9f8289ede09e61bc8a818682d3e82f9d"
}