{
  "_format": "hh3-artifact-1",
  "contractName": "QuyTuThien",
  "sourceName": "contracts/QuyTuThien.sol",
  "abi": [
    {
      "inputs": [],
      "stateMutability": "nonpayable",
      "type": "constructor"
    },
    {
      "anonymous": false,
      "inputs": [
        {
          "indexed": false,
          "internalType": "uint256",
          "name": "idChienDich",
          "type": "uint256"
        },
        {
          "indexed": false,
          "internalType": "address",
          "name": "nguoiNhan",
          "type": "address"
        },
        {
          "indexed": false,
          "internalType": "uint256",
          "name": "soTien",
          "type": "uint256"
        },
        {
          "indexed": false,
          "internalType": "string",
          "name": "mucDichChi",
          "type": "string"
        }
      ],
      "name": "GiaiNganThanhCong",
      "type": "event"
    },
    {
      "anonymous": false,
      "inputs": [
        {
          "indexed": false,
          "internalType": "uint256",
          "name": "idChienDich",
          "type": "uint256"
        },
        {
          "indexed": false,
          "internalType": "address",
          "name": "nguoiGui",
          "type": "address"
        },
        {
          "indexed": false,
          "internalType": "uint256",
          "name": "soTien",
          "type": "uint256"
        }
      ],
      "name": "NhanTienQuyenGop",
      "type": "event"
    },
    {
      "anonymous": false,
      "inputs": [
        {
          "indexed": false,
          "internalType": "uint256",
          "name": "idChienDich",
          "type": "uint256"
        },
        {
          "indexed": false,
          "internalType": "uint256",
          "name": "idTrenDatabase",
          "type": "uint256"
        }
      ],
      "name": "TaoChienDichMoi",
      "type": "event"
    },
    {
      "inputs": [
        {
          "internalType": "uint256",
          "name": "",
          "type": "uint256"
        }
      ],
      "name": "danhSachChienDich",
      "outputs": [
        {
          "internalType": "uint256",
          "name": "idTrenDatabase",
          "type": "uint256"
        },
        {
          "internalType": "address payable",
          "name": "nguoiNhanTien",
          "type": "address"
        },
        {
          "internalType": "uint256",
          "name": "mucTieuTien",
          "type": "uint256"
        },
        {
          "internalType": "uint256",
          "name": "tongTienDangGiu",
          "type": "uint256"
        },
        {
          "internalType": "uint256",
          "name": "soTienDaRut",
          "type": "uint256"
        },
        {
          "internalType": "bool",
          "name": "trangThaiDong",
          "type": "bool"
        }
      ],
      "stateMutability": "view",
      "type": "function"
    },
    {
      "inputs": [
        {
          "internalType": "uint256",
          "name": "_idChienDich",
          "type": "uint256"
        }
      ],
      "name": "dongChienDich",
      "outputs": [],
      "stateMutability": "nonpayable",
      "type": "function"
    },
    {
      "inputs": [],
      "name": "quanTriVien",
      "outputs": [
        {
          "internalType": "address",
          "name": "",
          "type": "address"
        }
      ],
      "stateMutability": "view",
      "type": "function"
    },
    {
      "inputs": [
        {
          "internalType": "uint256",
          "name": "_idChienDich",
          "type": "uint256"
        }
      ],
      "name": "quyenGop",
      "outputs": [],
      "stateMutability": "payable",
      "type": "function"
    },
    {
      "inputs": [
        {
          "internalType": "uint256",
          "name": "_idChienDich",
          "type": "uint256"
        },
        {
          "internalType": "uint256",
          "name": "_soTienCanRut",
          "type": "uint256"
        },
        {
          "internalType": "string",
          "name": "_mucDichChi",
          "type": "string"
        }
      ],
      "name": "rutTienGiaiNgan",
      "outputs": [],
      "stateMutability": "nonpayable",
      "type": "function"
    },
    {
      "inputs": [
        {
          "internalType": "uint256",
          "name": "_idTrenDatabase",
          "type": "uint256"
        },
        {
          "internalType": "address payable",
          "name": "_nguoiNhanTien",
          "type": "address"
        },
        {
          "internalType": "uint256",
          "name": "_mucTieuTien",
          "type": "uint256"
        }
      ],
      "name": "taoChienDich",
      "outputs": [],
      "stateMutability": "nonpayable",
      "type": "function"
    },
    {
      "inputs": [],
      "name": "tongSoChienDich",
      "outputs": [
        {
          "internalType": "uint256",
          "name": "",
          "type": "uint256"
        }
      ],
      "stateMutability": "view",
      "type": "function"
    }
  ],
  "bytecode": "0x6080604052348015600e575f5ffd5b50600280546001600160a01b031916331790556108878061002e5f395ff3fe60806040526004361061006e575f3560e01c8063c244bbea1161004c578063c244bbea146100e2578063cbfec89114610101578063e1b486b214610120578063fbb98bf8146101b3575f5ffd5b8063677d66ac146100725780636f66d9e0146100875780637536ad94146100a6575b5f5ffd5b610085610080366004610636565b6101d5565b005b348015610092575f5ffd5b506100856100a1366004610661565b6102e5565b3480156100b1575f5ffd5b506002546100c5906001600160a01b031681565b6040516001600160a01b0390911681526020015b60405180910390f35b3480156100ed575f5ffd5b506100856100fc366004610726565b6104df565b34801561010c575f5ffd5b5061008561011b366004610636565b6105ec565b34801561012b575f5ffd5b5061017c61013a366004610636565b600160208190525f91825260409091208054918101546002820154600383015460048401546005909401546001600160a01b0390931693919290919060ff1686565b604080519687526001600160a01b0390951660208701529385019290925260608401526080830152151560a082015260c0016100d9565b3480156101be575f5ffd5b506101c75f5481565b6040519081526020016100d9565b5f818152600160205260409020600581015460ff161561023c5760405162461bcd60e51b815260206004820152601760248201527f4c6f693a20436869656e206469636820646120646f6e6700000000000000000060448201526064015b60405180910390fd5b5f341161028b5760405162461bcd60e51b815260206004820152601b60248201527f4c6f693a20536f207469656e2070686169206c6f6e20686f6e203000000000006044820152606401610233565b34816003015f82825461029e919061077a565b909155505060408051838152336020820152348183015290517f8ceef0f3fa6aae899e4f7a25ee836a441dd6a9b9f6da648085ef15e927034ede9181900360600190a15050565b5f838152600160208190526040909120908101546001600160a01b031633148061031957506002546001600160a01b031633145b6103655760405162461bcd60e51b815260206004820152601c60248201527f4c6f693a204b686f6e6720636f20717579656e20727574207469656e000000006044820152606401610233565b82816003015410156103b95760405162461bcd60e51b815260206004820152601c60248201527f4c6f693a204b686f6e67206475207469656e2074726f6e6720717579000000006044820152606401610233565b82816003015f8282546103cc9190610793565b9250508190555082816004015f8282546103e6919061077a565b909155505060018101546040515f916001600160a01b03169085908381818185875af1925050503d805f8114610437576040519150601f19603f3d011682016040523d82523d5f602084013e61043c565b606091505b505090508061048d5760405162461bcd60e51b815260206004820152601960248201527f4c6f693a2043687579656e207469656e207468617420626169000000000000006044820152606401610233565b60018201546040517f43813d281ab62937fcf3dc6b956c732345645a3a4b061f08e8b3c5f3d7736ea6916104d09188916001600160a01b031690889088906107a6565b60405180910390a15050505050565b6002546001600160a01b031633146105095760405162461bcd60e51b8152600401610233906107f8565b5f8054908061051783610839565b90915550506040805160c0810182528481526001600160a01b0384811660208084019182528385018681525f606086018181526080870182815260a088018381528354845260018087528a852099518a55965196890180546001600160a01b031916979098169690961790965591516002870155905160038601559251600485015590516005909301805460ff1916931515939093179092555482519081529081018590527faf3af02baa83e01a9fb3b51fdc14bede58564b7170c89843a84f93fcca287ce5910160405180910390a1505050565b6002546001600160a01b031633146106165760405162461bcd60e51b8152600401610233906107f8565b5f908152600160208190526040909120600501805460ff19169091179055565b5f60208284031215610646575f5ffd5b5035919050565b634e487b7160e01b5f52604160045260245ffd5b5f5f5f60608486031215610673575f5ffd5b8335925060208401359150604084013567ffffffffffffffff811115610697575f5ffd5b8401601f810186136106a7575f5ffd5b803567ffffffffffffffff8111156106c1576106c161064d565b604051601f8201601f19908116603f0116810167ffffffffffffffff811182821017156106f0576106f061064d565b604052818152828201602001881015610707575f5ffd5b816020840160208301375f602083830101528093505050509250925092565b5f5f5f60608486031215610738575f5ffd5b8335925060208401356001600160a01b0381168114610755575f5ffd5b929592945050506040919091013590565b634e487b7160e01b5f52601160045260245ffd5b8082018082111561078d5761078d610766565b92915050565b8181038181111561078d5761078d610766565b84815260018060a01b0384166020820152826040820152608060608201525f8251806080840152806020850160a085015e5f60a0828501015260a0601f19601f83011684010191505095945050505050565b60208082526021908201527f4c6f693a204368692041646d696e206d6f692064756f632074687563206869656040820152603760f91b606082015260800190565b5f6001820161084a5761084a610766565b506001019056fea264697066735822122067994d9be5eaf7a46726a3ed8798bda5003918e054737dad40ef30ea1fcdfd3264736f6c634300081c0033",
  "linkReferences": {},
  "deployedLinkReferences": {},
  "immutableReferences": {},
  "inputSourceName": "project/contracts/QuyTuThien.sol",
  "buildInfoId": "solc-0_8_28-ca8df364751706bec602a78cb53fd39aa52cf5d2"
}